:1000000019C0C8C032C031C030C02FC02EC02DC0F2
:100010002CC02BC02AC060C428C027C046C425C03D
:1000200024C023C022C021C020C01FC01EC01DC0CC
:100030001CC01BC011241FBECFEFD4E0DEBFCDBF5C
:1000400011E0A0E0B1E0E4E9F8E102C005900D9212
:10005000AC34B107D9F722E0ACE4B1E001C01D92A5
:10006000A932B207E1F747D413CCCACF249884B1A0
:100070008C6284B92C9A8CB581658CBD2A9A229A9F
:1000800052985A9A08952A989EBD0DB407FEFDCF46
:100090009EB58EBD0DB407FEFDCF2EB52A9A892FD1
:1000A00090E0982F8827820F911D089580E09EEFA1
:1000B000EADF2FEF84E39CE0215080409040E1F79D
:1000C00000C0000087EE90E8DEDF89E092E8DBDF29
:1000D00080E496EAD8DF87E496ECD5DF80EA94E9FD
:1000E000D2DF8CEA92ECCFDF81E89AECCCDF83E8B8
:1000F00094ECC9DF80E598E9C6DF87E19CECC3DFBB
:1001000080E090EEC0DF80E098ECBDDF80EC90EC0A
:10011000BACF2A9885E08A95F1F7000088EC1C99FF
:100120000AC0EFE9FFE03197F1F700C0000081500D
:10013000B1F781E0089580E00895E89881E092E8C1
:10014000A2DF80E090E09FCF81E080934F0189ECB7
:1001500092E899DF8FE19EE40197F1F700C000007B
:1001600081E89AEC90DF83E89AEC8DDF80E090E004
:100170008ADF10924E01E89A089584E080934F013F
:1001800080E090E080DF89E392E87DDF10924D010E
:10019000E89A08951F920F920FB60F9211242F9391
:1001A0003F934F935F936F937F938F939F93AF93FF
:1001B000BF93EF93FF9380E090E065DF97FF34C03B
:1001C00080914F018130B1F480E090EB5CDF8330AF
:1001D00011F482E038C090914E01903298F5E09190
:1001E0004E0191E09E0F90934E01F0E0EF5AFE4FCA
:1001F00080832CC080914F01843041F590914D0156
:1002000080914C01891770F0E0914D0181E08E0FD3
:1002100080934D01F0E0EF58FE4F808190E0986BA5
:1002200032DF14C085E00FC020914F01243021F44B
:1002300095FF02C086E007C020914F01213031F4C4
:1002400095FF04C083E080934F0177DFFF91EF912A
:10025000BF91AF919F918F917F916F915F914F91DE
:100260003F912F910F900FBE0F901F901895809186
:100270004F01089540E020914E01421760F4242F71
:1002800030E0F901EF5AFE4F5081FC01E20FF31FFD
:1002900050834F5FF0CF80914E01FB018083089522
:1002A0002AEA209371012DE2209372014093730199
:1002B000382FFC0183E090E02E2F231B261738F403
:1002C0002191DC01AF58BE4F2C930196F5CF862FBC
:1002D00090E0FC01EC58FE4F23E02083FC01EB583A
:1002E000FE4F2AEA20836C5F60934C010895CF9300
:1002F000DF9370E0EC01C60FD71F48836F5F7F4F1D
:1003000051D01F928F9386E091E09F938F93DF935C
:10031000CF93A5D70F900F900F900F900F900F9045
:10032000DF91CF910895AF92BF92DF92EF92FF924B
:100330000F931F93CF93DF931F92CDB7DEB77C014E
:100340005B01FB018081F701E80FF11D1082FB01C9
:10035000008110E0035011090E0D1F1DC8014983D3
:100360000DD7D82E4981F8014083F501608170E0F6
:1003700062507109C70116D0F501908193508D111B
:1003800003C0908381E003C0F501908380E00F906B
:10039000DF91CF911F910F91FF90EF90DF90BF9071
:1003A000AF900895FC01680F791F80E048E1E617DF
:1003B000F70781F0219198E0322F3827532F5170A1
:1003C00030FD84278695513009F480682695915038
:1003D00099F7EDCF08958FB7F894559A5D98E7E6B1
:1003E000F1E03197F1F700C000005D9AF0EAFA956C
:1003F000F1F78FBF0895811101C0EDCF8FB7F89449
:10040000559A5D9895E39A95F1F700005D9AE7ECAF
:10041000F0E03197F1F700C000008FBF08959FB75B
:10042000F894559A5D982AE02A95F1F700C05598FE
:100430008AE38A95F1F700C089B12AEF2A95F1F78E
:1004400000C09FBF85FB882780F908959FB7F89467
:10045000559A5D98EFECF7E03197F1F700C0000096
:100460005598E7E1F1E03197F1F700C0000089B15C
:10047000EFE8F6E03197F1F700C000009FBF85FB81
:10048000882780F991E089270895CF93DF93D82FAB
:10049000C8E08D2F8170AFDFD695C150D1F7DF91C5
:1004A000CF910895AF92BF92CF92DF92EF92FF92D9
:1004B0000F931F93CF93DF93EC018B01C7DF80EF86
:1004C000E4DFB12CD12C88EFC82EEE24E394F12C7C
:1004D000A6DFA82EAA0CA3DF8A0DED2DE695E695E2
:1004E000E6959D2DEC9D900D1124823089F49E019E
:1004F0002E0F311DF901970102C0220F331F9A956B
:10050000E2F7C9019081980F908381E074DF2BC0DE
:10051000813041F1811130C0B11024C001151105A5
:1005200009F1F0E0D801AE0FBF1F2C9130E0092E89
:1005300002C0359527950A94E2F720FD0FC0EC0F15
:10054000FD1F970102C0220F331F9A95E2F7C901E0
:100550009081980F908381E04EDF01C03CDFBB2487
:10056000B39401C038DFD39430E4D312B1CF81E02B
:10057000BB2019F080E001C082E0DF91CF911F9194
:100580000F91FF90EF90DF90CF90BF90AF900895C4
:100590001F93CF93DF93C0E0D0E010E040DF282F1F
:1005A0000C2E01C0220F0A94EAF7120F2196C830D0
:1005B000D105A1F7812FDF91CF911F910895559A11
:1005C0005D9A0895EF92FF920F931F93CF93DF935D
:1005D000EC013CDF85E559DFF12C28EFE22E01E04C
:1005E00010E02F2D2695269526958F2D2E9D800D7A
:1005F0001124A80102C0440F551F8A95E2F7CA01D1
:10060000FE01E20FF11D90818923F5DEF39450E4A1
:10061000F512E7CFDF91CF911F910F91FF90EF90EF
:10062000089514DF8CEC31CF60E070E086E991E052
:1006300039DF813021F480939E0180E0089582307B
:1006400011F481E0089582E0089586E991E008952B
:10065000EF92FF921F93CF93DF931F92CDB7DEB738
:10066000182F7C018E2D811B861738F4F70181919C
:100670007F0169830ADF6981F5CF0F90DF91CF9108
:100680001F91FF90EF900895EF92FF921F93CF93E9
:10069000DF931F92CDB7DEB7182F7C018E2D811B03
:1006A000861738F4698374DFF70181937F016981CC
:1006B000F5CF0F90DF91CF911F91FF90EF900895AC
:1006C000882319F05D9A559A0895559808955D9874
:1006D00099B1892F807295FF1FC0559A8FEC97E0D2
:1006E0000197F1F700C00000559887E191E001976C
:1006F000F1F700C000004D9908C08FEC97E001971A
:10070000F1F700C0000081E008958FEC97E00197B9
:10071000F1F700C0000080E008955D9898E0559AD8
:1007200080FF0BC025E22A95F1F700005598E7E11C
:10073000F1E03197F1F700C00AC0E7E1F1E031974D
:10074000F1F700C000005598F5E2FA95F1F70000C6
:100750008695915021F70895BADF882329F08CEC13
:10076000DCDF84E4DADF8FEF0895559898E080E0CD
:10077000559A25E22A95F1F700005598E5E2EA95A9
:10078000F1F7000086954D998068E7E1F1E0319737
:10079000F1F700C00000915059F708950F931F938F
:1007A000CF93DF93182F092F92DF882361F08CEC11
:1007B000B4DF8EEBB2DFC12FD02F19E0D6DF8993E3
:1007C0001150E1F703C080E090E002C081E090E0CA
:1007D000DF91CF911F910F910895F999FECF92BDAE
:1007E00081BD60BDFA9AF99A0895F999FECF92BD3C
:1007F00081BDF89A80B50895EF92FF920F931F93F1
:10080000CF93DF93FC01E60FF71F319710828C0125
:10081000C0E0D0E07B0181E0E81AF108CE15DF05E9
:100820003CF4CE01E2DFF80181938F012196F6CFEF
:10083000DF91CF911F910F91FF90EF9008950F934B
:100840001F93CF93DF93EC018C01C8018C1B9D0B90
:10085000FE0101900020E9F73197EC1BFD0B8E178C
:100860009F0728F4F80161918F01B7DFEECFDF9188
:10087000CF911F910F910895CF93DF9300D01F92D6
:10088000CDB7DEB763E070E0CE010196B5DF40E1A1
:1008900050E060E070E0CE0101963FD3862F0F90CC
:1008A0000F900F90DF91CF9108951F920F920FB686
:1008B0000F9211248F939F9380919F019091A0019B
:1008C00001969093A00180939F019F918F910F902B
:1008D0000FBE0F901F9018951F920F920FB60F9298
:1008E00011248F9381E0809350018F910F900FBE60
:1008F0000F901F901895CF93DF9300D000D0CDB705
:10090000DEB798D082D1B2DBD1DB83E390E0BAD1FD
:1009100088E19EE29CD180E190E08CD1ECD0ACDF0C
:10092000182F90E09E6CAFDB0FDC78948BE091E0A9
:10093000BBD180E470D1882361F0112351F080E2B3
:1009400091E07DDF88EC90E091D183E291E0ACD141
:1009500010E08DDC823019F08330D9F13BC0BE014C
:100960006C5F7F4F81EA91E085DC412FBE016C5FB7
:100970007F4F81EA91E0D7DC80930202882349F11E
:100980008091A101843551F481EC91E08DD185E015
:1009900090E06CD161EC71E08FEF26D18091A101E4
:1009A0008E34B9F485E090E061D162EA71E0CE0165
:1009B000019614D4CE01019642DF40E150E060E0A0
:1009C00070E0CE010196A9D2162F61EC71E08FEF95
:1009D0000BD1BADBF894809150018823A1F01092DA
:1009E000500181EC91E08CD080930202E1ECF1E0C7
:1009F00001900020E9F73197E15CF1404FEF6E2F55
:100A000081EC91E074DC789494CFCF93C82F8FEF72
:100A100090E05CD1FC0120E030E04C2F50E061E040
:100A2000620F2417350724F461932F5F3F4FF7CFF0
:100A3000CF9108958FE384B987B98FEF8AB915B83C
:100A400080E488B91BB80895DF92EF92FF920F936C
:100A50001F93CF93DF93CDB7DEB727970FB6F894E8
:100A6000DEBF0FBECDBFD82EE82EF12C40E1BE0177
:100A70006F5F7F4FC701C8D383E090E027D18C011F
:100A800040E1BC01C701C0D38FE08D1588F020E3A1
:100A900030E040E02D833E834F83B801CE010596C0
:100AA00092D343E050E0BE016B5F7F4FC8019DD3FE
:100AB000C80127960FB6F894DEBF0FBECDBFDF91F9
:100AC000CF911F910F91FF90EF90DF900895262F07
:100AD00030E0611103C041E0FC0107C0FC01E20FFE
:100AE000F31FDF0111974C914F5F4083FC01E20F30
:100AF000F31F8081A9CFAADC8CECC7DC84E4C5CCD1
:100B0000FF920F931F93CF93DF93CDB7DEB7299753
:100B10000FB6F894DEBF0FBECDBF182F092F96DC9D
:100B2000811103C06BE271E013C090DC8CECADDC92
:100B30008EEBABDC69E0CE010196A6DDF98468E0BE
:100B400070E0CE0101962EDCF81641F065E371E00D
:100B5000812F902F43D3CFDF80E03AC02A8130E04D
:100B6000322F22278981280F311D37FF05C031958B
:100B70002195310981E001C080E0F901EF70FF2784
:100B800061E772E0E69FA001E79F500DF69F500DD0
:100B9000112494E0369527959A95E1F73327882319
:100BA00011F08DE201C080E25F934F933F932F934A
:100BB0001F928F9320E431E03F932F930F931F9365
:100BC0004ED399DF0FB6F894DEBF0FBECDBF81E0E4
:100BD00029960FB6F894DEBF0FBECDBFDF91CF913F
:100BE0001F910F91FF900895DB01FB010190002000
:100BF000E9F73197E61BF70B482F6E2FCD0150DB3D
:100C0000BCDA35DB8430E9F3089556985E9A08958E
:100C100057985F9A0895CF93C82F99B1982339F4C4
:100C200080E590E023D099B19C2381E009F080E039
:100C3000CF91089594B5926094BD95B5956095BD9A
:100C400087BDEEE6F0E08081826080830895E1E870
:100C5000F0E020812D6020839093890080938800AC
:100C6000EFE6F0E080818260808308951092A00119
:100C700010929F0120919F013091A0012817390700
:100C8000C8F308959093C5008093C40088E98093C9
:100C9000C10086E08093C20008959091C00095FF46
:100CA000FCCF8093C6000895CF93DF93EC01899128
:100CB000882311F0F2DFFBCFDF91CF91089580916F
:100CC000C00087FFFCCF8091C6000895CF93DF93CB
:100CD0008230910510F482E090E0E0912502F091DD
:100CE000260220E030E0A0E0B0E0309739F140810A
:100CF000518148175907B8F04817590771F4828194
:100D00009381109729F013969C938E9312972CC081
:100D1000909326028093250227C02115310531F0DA
:100D20004217530718F0A901DB0101C0EF019A0136
:100D3000BD01DF010280F381E02DD7CF2115310500
:100D4000F9F0281B390B2430310580F48A819B810E
:100D50006115710521F0FB019383828304C0909398
:100D6000260280932502FE01329644C0FE01E20F66
:100D7000F31F8193919322503109398328833AC01C
:100D80002091230230912402232B41F4209102016F
:100D9000309103013093240220932302209100011B
:100DA000309101012115310541F42DB73EB7409135
:100DB000040150910501241B350BE0912302F091B1
:100DC0002402E217F307A0F42E1B3F0B2817390764
:100DD00078F0AC014E5F5F4F2417350748F04E0F97
:100DE0005F1F50932402409323028193919302C08A
:100DF000E0E0F0E0CF01DF91CF910895CF93DF9352
:100E0000009709F487C0FC01329713821282C091C7
:100E10002502D0912602209781F420813181280F6C
:100E2000391F80912302909124028217930779F54C
:100E3000F0932402E09323026DC0DE0120E030E055
:100E4000AE17BF0750F412964D915C9113979D0118
:100E50004115510509F1DA01F3CFB383A283408133
:100E60005181840F951F8A179B0771F48D919C9176
:100E70001197840F951F02969183808312968D910E
:100E80009C911397938382832115310529F4F09364
:100E90002602E09325023EC0D9011396FC93EE93FF
:100EA00012974D915D91A40FB51FEA17FB0779F4D6
:100EB00080819181840F951F0296D90111969C9390
:100EC0008E938281938113969C938E931297E0E088
:100ED000F0E08A819B81009719F0FE01EC01F9CFC7
:100EE000CE01029628813981820F931F209123021F
:100EF000309124022817390769F4309729F41092A9
:100F000026021092250202C013821282D09324027C
:100F1000C0932302DF91CF9108952F923F925F9269
:100F20006F927F928F929F92AF92BF92CF92DF92F9
:100F3000EF92FF920F931F93CF93DF938B01EA0100
:100F40006115710521F0DB018C9311969C9320971C
:100F500039F09E01225031092332310508F0F8C0E2
:100F60007C016701BFEFCB1ADB0A5601F7016080F5
:100F7000862D90E020D1892B11F07601F2CFFDE291
:100F80006F120AC0570182E0A80EB11CD70111965A
:100F90006C90772473940BC0BBE26B1207C05701AF
:100FA000E2E0AE0EB11CD70111966C90712CCE010F
:100FB0008F7E892B89F4B0E36B1222C0F50180810A
:100FC0008F7D883541F56180F2E0AF0EB11C872D31
:100FD0008260782EC0E1D0E0C830D105F1F04CF449
:100FE000C230D10511F5C12CD12CE12CB0E4FB2E7F
:100FF0002EC0CA30D10531F0C031D10519F115C06C
:10100000209751F7CAE0D0E0ACECCA2EDC2CEC2CD7
:10101000ACE0FA2E1CC02097F9F6C8E0D0E0C12C55
:10102000D12CE12CF0E1FF2E12C060E070E080E0F6
:1010300090E89E01442737FD4095542FBAD36901AB
:101040007A0105C0C12CD12CE12CE8E0FE2EF5017F
:1010500060E020E030E0A9014E01AA2497FCA094B2
:10106000BA2C1F0170ED572E560CA9E0A51570F48F
:101070008FEB860D8A3118F499EC592E06C08FE952
:10108000860D8A3128F589EA582E560C852D90E078
:101090008C179D07ECF467FD17C0C216D306E40653
:1010A000F50678F0C501B40175D39B01AC01250D9F
:1010B000311D411D511D213031054105B0E85B074F
:1010C00010F06FEF01C061E03196D1016C90C9CF93
:1010D000872D81700115110571F0662329F0319774
:1010E000D801ED93FC9307C071FE19C03297D80167
:1010F000ED93FC9314C067FF12C0882329F020E011
:1011000030E040E050E804C02FEF3FEF4FEF5FE7E3
:1011100082E290E0909328028093270216C08823F1
:1011200041F050954095309521953F4F4F4F5F4F7F
:101130000CC057FF0AC082E290E09093280280938F
:1011400027022FEF3FEF4FEF5FE7B901CA0104C05D
:1011500060E070E080E090E0DF91CF911F910F910F
:10116000FF90EF90DF90CF90BF90AF909F908F90C7
:101170007F906F905F903F902F900895FC0188279B
:101180009927E89421912032E9F3293010F02E308C
:10119000C8F32B3239F02D3231F4689403C03ED0BD
:1011A000820F911D219120532A30C8F31EF490958F
:1011B00081959F4F0895911134C2803219F0895062
:1011C0008550D0F70895FB01DC010D900020E9F770
:1011D000119701900D920020E1F70895FB01DC01C9
:1011E00001900D920020E1F70895FB01DC014150D0
:1011F000504048F001900D920020C9F701C01D92A7
:1012000041505040E0F70895BB274A3031F499230C
:1012100022F4BDE2909581959F4F09C07AE0979F97
:10122000902D879F802D910D11240895BB27FB01E0
:101230005527AA27880F991FAA1FA41710F0A41BCF
:1012400083955051B9F7A05DAA3308F0A95DA19329
:10125000009779F7B111B1931192CB01FBC1AEE0C8
:10126000B0E0E4E3F9E0DFC20D891E8986E08C83FB
:101270001A8309838FEF9FE79E838D83AE01475EBC
:101280005F4F6F89788DCE01019608D0EF81F88588
:10129000E00FF11F10822E96E4E0E1C2ACE0B0E076
:1012A000E3E5F9E0B2C27C016B018A01FC0117821F
:1012B0001682838181FFB0C1CE0101964C01F701F6
:1012C0009381F60193FD859193FF81916F018823AE
:1012D00009F49EC1853239F493FD859193FF819184
:1012E0006F01853221F4B70190E0C4D1E8CF512CD1
:1012F000312C20E02032A0F48B3269F030F48032BF
:1013000059F0833269F420612CC08D3239F080337A
:1013100039F4216026C02260246023C0286021C0E7
:1013200027FD27C030ED380F3A3078F426FF06C08D
:10133000FAE05F9E300D1124532E13C08AE0389ED0
:10134000300D1124332E20620CC08E3221F426FD84
:101350005FC1206406C08C3611F4206802C0883654
:1013600041F4F60193FD859193FF81916F01811105
:10137000C1CF982F9F7D9554933028F40C5F1F4F59
:10138000FFE3F9830DC0833631F0833771F0833585
:1013900009F057C021C0F801808189830E5F1F4F7B
:1013A00044244394512C540114C03801F2E06F0ED0
:1013B000711CF801A080B18026FF03C0652D70E08C
:1013C00002C06FEF7FEFC5012C8739D12C0183015B
:1013D0002C852F77222E16C03801F2E06F0E711C7B
:1013E000F801A080B18026FF03C0652D70E002C027
:1013F0006FEF7FEFC5012C8717D12C012C8520685A
:10140000222E830123FC19C0832D90E04816590633
:10141000A0F4B70180E290E02DD13A94F5CFF50128
:1014200027FC859127FE81915F01B70190E022D1D1
:1014300031103A94F1E04F1A51084114510479F7F0
:10144000DEC0843611F0893631F5F80127FF07C078
:1014500060817181828193810C5F1F4F08C0608120
:101460007181882777FD8095982F0E5F1F4F2F760B
:10147000B22E97FF09C090958095709561957F4F2A
:101480008F4F9F4F2068B22E2AE030E0A40124D174
:10149000A82EA81843C0853729F42F7EB22E2AE043
:1014A00030E025C0F22FF97FBF2E8F36C1F018F43F
:1014B000883579F0ADC0803719F0883721F0A8C0A1
:1014C0002F2F2061B22EB4FE0DC08B2D8460B82E5C
:1014D00009C024FF0AC09F2F9660B92E06C028E0DD
:1014E00030E005C020E130E002C020E132E0F80148
:1014F000B7FE07C060817181828193810C5F1F4FAD
:1015000006C06081718180E090E00E5F1F4FA401F2
:10151000E3D0A82EA818FB2DFF77BF2EB6FE0BC078
:101520002B2D2E7FA51450F4B4FE0AC0B2FC08C0C7
:101530002B2D2E7E05C07A2C2B2D03C07A2C01C0BA
:10154000752C24FF0DC0FE01EA0DF11D8081803352
:1015500011F4297E09C022FF06C07394739404C05D
:10156000822F867809F0739423FD12C020FF06C0F5
:101570005A2C731418F4530C5718732C731460F40A
:10158000B70180E290E02C8775D073942C85F6CF5C
:10159000731410F4371801C0312C24FF11C0B701A7
:1015A00080E390E02C8766D02C8522FF16C021FFB7
:1015B00003C088E590E002C088E790E0B7010CC066
:1015C000822F867851F021FD02C080E201C08BE2BB
:1015D00027FD8DE2B70190E04DD0A51430F4B7019E
:1015E00080E390E047D05A94F8CFAA94F401EA0D32
:1015F000F11D8081B70190E03DD0A110F6CF3320DE
:1016000009F45DCEB70180E290E034D03A94F7CF90
:10161000F7018681978102C08FEF9FEF2C96E2E160
:1016200010C1992788270895FC01059061507040EA
:101630000110D8F7809590958E0F9F1F0895FC019B
:101640006150704001900110D8F7809590958E0FF1
:101650009F1F0895DC01FC01672F71917723E1F74B
:10166000329704C07C916D9370836291AE17BF076F
:10167000C8F308950F931F93CF93DF93182F092F6B
:10168000EB018B8181FD03C08FEF9FEF20C082FFB4
:1016900010C04E815F812C813D81421753077CF43D
:1016A000E881F9819F012F5F3F4F398328831083A1
:1016B00006C0E885F985812F0995892B29F72E81A8
:1016C0003F812F5F3F4F3F832E83812F902FDF91EC
:1016D000CF911F910F910895FA01AA27283051F157
:1016E000203181F1E8946F936E7F6E5F7F4F8F4F53
:1016F0009F4FAF4FB1E03ED0B4E03CD0670F781FB2
:10170000891F9A1FA11D680F791F8A1F911DA11D96
:101710006A0F711D811D911DA11D20D009F46894CF
:101720003F912AE0269F11243019305D3193DEF677
:10173000CF010895462F4770405D4193B3E00FD02D
:10174000C9F7F6CF462F4F70405D4A3318F0495D18
:1017500031FD4052419302D0A9F7EACFB4E0A695FB
:101760009795879577956795BA95C9F7009761051D
:10177000710508959B01AC010A2E06945795479573
:1017800037952795BA95C9F7620F731F841F951F68
:10179000A01D0895DB018F939F932DD0BF91AF9132
:1017A000A29F800D911DA39F900DB29F900D1124BB
:1017B0000895A1E21A2EAA1BBB1BFD010DC0AA1F92
:1017C000BB1FEE1FFF1FA217B307E407F50720F0AA
:1017D000A21BB30BE40BF50B661F771F881F991F25
:1017E0001A9469F760957095809590959B01AC016E
:1017F000BD01CF01089540D0A59F900DB49F900DDD
:10180000A49F800D911D112408952F923F924F9215
:101810005F926F927F928F929F92AF92BF92CF9280
:10182000DF92EF92FF920F931F93CF93DF93CDB789
:10183000DEB7CA1BDB0B0FB6F894DEBF0FBECDBF01
:1018400009942A88398848885F846E847D848C84D2
:101850009B84AA84B984C884DF80EE80FD800C81DB
:101860001B81AA81B981CE0FD11D0FB6F894DEBFBE
:101870000FBECDBFED010895A29FB001B39FC0017F
:10188000A39F01D0B29F700D811D1124911D089559
:04189000F894FFCFFA
:1018940000002902200025303364000D0A0D0A528D
:1018A400464D313242202D20534C4156450D0A00FD
:1018B40030300072657365740D0A00542E50524521
:1018C40053454E5400542E435243382E4552520031
:0C18D4002563253033642E253034640079
:00000001FF
