:1000000019C0C5C038C037C036C035C04EC433C0B3
:1000100032C031C030C08CC42EC02DC026C42BC00D
:100020002AC029C028C027C026C025C024C023C09C
:1000300022C021C011241FBECFEFD4E0DEBFCDBF50
:1000400014BEE0E6F0E088E18083108211E0A0E0D9
:10005000B1E0ECEBFAE102C005900D92A635B107D4
:10006000D9F722E0A6E5B1E001C01D92A835B2079C
:10007000E1F76DD421CDC4CF249884B18C6284B9CA
:100080002C9A8CB581658CBD2A9A229A52985A9ADC
:1000900008952A989EBD0DB407FEFDCF9EB58EBD76
:1000A0000DB407FEFDCF2EB52A9A892F90E0982F28
:1000B0008827820F911D089580E09EEFEADF83E29A
:1000C00094EF0197F1F700C0000087EE90E8E1DFC0
:1000D00089E092E8DEDF80E496EADBDF87E496ECF5
:1000E000D8DF80EA94E9D5DF8CEA92ECD2DF81E8B0
:1000F0009AECCFDF83E894ECCCDF80E598E9C9DFA8
:1001000087E19CECC6DF80E090EEC3DF8CEC90ECE6
:10011000C0CF2A98000088EC1C990AC0E9EFF0E0F3
:100120003197F1F700C000008150B1F781E00895E8
:1001300080E00895E89881E092E8ABDF80E090E00D
:10014000A8CF81E08093590189EC92E8A2DF81EE8B
:1001500094E00197F1F700C0000081E89AEC99DF84
:1001600083E89AEC96DF80E090E093DF10925801EC
:10017000E89A089584E08093590180E090E089DF57
:1001800089E392E886DF10925701E89A08951F925A
:100190000F920FB60F9211242F933F934F935F93BB
:1001A0006F937F938F939F93AF93BF93EF93FF933F
:1001B00080E090E06EDF97FF34C08091590181307C
:1001C000B1F480E090EB65DF833011F482E038C059
:1001D00090915801903298F5E091580191E09E0F6E
:1001E00090935801F0E0E55AFE4F80832CC0809137
:1001F0005901843041F5909157018091560189173A
:1002000070F0E091570181E08E0F80935701F0E08C
:10021000E558FE4F808190E0986B3BDF14C085E08D
:100220000FC020915901243021F495FF02C086E0CF
:1002300007C020915901213031F495FF04C083E0BB
:100240008093590177DFFF91EF91BF91AF919F911B
:100250008F917F916F915F914F913F912F910F906F
:100260000FBE0F901F90189580915901089540E09E
:1002700020915801421760F4242F30E0F901E55A2B
:10028000FE4F5081FC01E20FF31F50834F5FF0CF10
:1002900080915801FB01808308952AEA20937B0115
:1002A0002DE220937C0140937D01382FFC0183E0F7
:1002B00090E02E2F231B261738F42191DC01A5583E
:1002C000BE4F2C930196F5CF862F90E0FC01E258AB
:1002D000FE4F23E02083FC01E158FE4F2AEA2083F1
:1002E0006C5F609356010895CF93DF9370E0EC014B
:1002F000C60FD71F48836F5F7F4F51D01F928F93D8
:1003000086E091E09F938F93DF93CF93BCD80F90BB
:100310000F900F900F900F900F90DF91CF91089555
:10032000AF92BF92DF92EF92FF920F931F93CF9302
:10033000DF931F92CDB7DEB77C015B01FB018081AB
:10034000F701E80FF11D1082FB01008110E003505E
:1003500011090E0D1F1DC801498324D8D82E4981CB
:10036000F8014083F501608170E062507109C701B6
:1003700016D0F501908193508D1103C0908381E0D8
:1003800003C0F501908380E00F90DF91CF911F9122
:100390000F91FF90EF90DF90BF90AF900895FC0118
:1003A000680F791F80E048E1E617F70781F0219197
:1003B00098E0322F3827532F517030FD84278695CF
:1003C000513009F480682695915099F7EDCF089542
:1003D0008FB7F894559A5D989EE19A95F1F75D9ADA
:1003E0009AE09A95F1F78FBF0895811101C0F0CF7F
:1003F0008FB7F894559A5D9893E09A95F1F70000BD
:100400005D9A90E19A95F1F700C08FBF08959FB76C
:10041000F894559A5D9800C0559823E02A95F1F715
:1004200000C089B12FE02A95F1F700C09FBF85FB7E
:10043000882780F908959FB7F894559A5D9826EA21
:100440002A95F1F700C0559887E18A95F1F70000E9
:1004500089B12CE82A95F1F79FBF85FB882780F9A1
:1004600091E089270895CF93DF93D82FC8E08D2F8F
:100470008170BBDFD695C150D1F7DF91CF91089540
:10048000AF92BF92CF92DF92EF92FF920F931F93A2
:10049000CF93DF93EC018B01CEDF80EFE4DFB12C53
:1004A000D12C88EFC82EEE24E394F12CB0DFA82ED7
:1004B000AA0CADDF8A0DED2DE695E695E6959D2D0E
:1004C000EC9D900D1124823089F49E012E0F311D78
:1004D000F901970102C0220F331F9A95E2F7C90173
:1004E0009081980F908381E080DF2BC0813041F1B3
:1004F000811130C0B11024C00115110509F1F0E0DF
:10050000D801AE0FBF1F2C9130E0092E02C03595E7
:1005100027950A94E2F720FD0FC0EC0FFD1F97010D
:1005200002C0220F331F9A95E2F7C9019081980FFC
:10053000908381E05ADF01C04BDFBB24B39401C03C
:1005400047DFD39430E4D312B1CF81E0BB2019F060
:1005500080E001C082E0DF91CF911F910F91FF9069
:10056000EF90DF90CF90BF90AF9008951F93CF93FF
:10057000DF93C0E0D0E010E04ADF282F0C2E01C04E
:10058000220F0A94EAF7120F2196C830D105A1F77D
:10059000812FDF91CF911F910895559A5D9A08950B
:1005A000EF92FF920F931F93CF93DF93EC0143DF02
:1005B00085E559DFF12C28EFE22E01E010E02F2D28
:1005C0002695269526958F2D2E9D800D1124A80108
:1005D00002C0440F551F8A95E2F7CA01FE01E20FDF
:1005E000F11D9081892301DFF39450E4F512E7CFE8
:1005F000DF91CF911F910F91FF90EF9008951BDF36
:100600008CEC31CF60E070E080EA91E039DF81303E
:1006100021F48093A80180E00895823011F481E0F4
:10062000089582E0089580EA91E00895EF92FF92A4
:100630001F93CF93DF931F92CDB7DEB7182F7C01A6
:100640008E2D811B861738F4F70181917F01698314
:100650000ADF6981F5CF0F90DF91CF911F91FF9055
:10066000EF900895EF92FF921F93CF93DF931F9225
:10067000CDB7DEB7182F7C018E2D811B861738F47D
:10068000698374DFF70181937F016981F5CF0F9052
:10069000DF91CF911F91FF90EF900895882319F07B
:1006A0005D9A559A0895559808955D9899B1892F46
:1006B000807295FF17C0559A86EA8A95F1F700C0B7
:1006C000559887E18A95F1F700004D9906C086EAB2
:1006D0008A95F1F700C081E0089586EA8A95F1F7DE
:1006E00000C080E008955D9898E0559A80FF09C0A9
:1006F00022E02A95F1F70000559827E12A95F1F7B5
:1007000008C027E12A95F1F70000559822E02A95C4
:10071000F1F700008695915041F70895C6DF8823D0
:1007200029F08CECE0DF84E4DEDF8FEF089555984C
:1007300098E080E0559A22E02A95F1F7000055985C
:1007400022E02A95F1F7000086954D99806827E10F
:100750002A95F1F70000915069F708950F931F93C0
:10076000CF93DF93182F092FA0DF882361F08CEC43
:10077000BADF8EEBB8DFC12FD02F19E0D8DF899315
:100780001150E1F703C080E090E002C081E090E00A
:10079000DF91CF911F910F910895F999FECF92BDEE
:1007A00081BD60BDFA9AF99A0895F999FECF92BD7C
:1007B00081BDF89A80B50895EF92FF920F931F9331
:1007C000CF93DF93FC01E60FF71F319710828C0166
:1007D000C0E0D0E07B0181E0E81AF108CE15DF052A
:1007E0003CF4CE01E2DFF80181938F012196F6CF30
:1007F000DF91CF911F910F91FF90EF9008950F938C
:100800001F93CF93DF93EC018C01C8018C1B9D0BD0
:10081000FE0101900020E9F73197EC1BFD0B8E17CC
:100820009F0728F4F80161918F01B7DFEECFDF91C8
:10083000CF911F910F910895CF93DF9300D01F9216
:10084000CDB7DEB763E070E0CE010196B5DF40E1E1
:1008500050E060E070E0CE01019673D4862F0F90D7
:100860000F900F90DF91CF9108951F920F920FB6C6
:100870000F9211248F939F938091A9019091AA01C7
:1008800001969093AA018093A90180914F029091C3
:10089000500201969093500280934F029F918F9146
:1008A0000F900FBE0F901F9018951F920F920FB6CA
:1008B0000F9211248F9388E10FB6F8948093600013
:1008C000109260000FBE8F910F900FBE0F901F907F
:1008D000189514BEE0E6F0E09081986590838064FE
:1008E0008083A89583B7817F846083BF83B781604D
:1008F00083BF889583B78E7F83BF0895CF93DF939F
:10090000C2E0D0E081E2E5DF809164008F7D8093DA
:10091000640080E494D2811108C0809164008062F8
:10092000809364002197209769F7DF91CF91089514
:100930001F920F920FB60F9211248F9381E0809334
:100940005A018F910F900FBE0F901F901895CF9363
:10095000DF93CDB7DEB727970FB6F894DEBF0FBE93
:10096000CDBF67D289DBA8DB89E190E09FD288E127
:100970009EE281D280E172D261D180B7806880BF6F
:1009800080917A008F7780937A0056DF782EBE01AF
:100990006C5F7F4FFFD01F82872D90E09E6C79DBCC
:1009A00083B7817F846083BF78942FE088E190E0F3
:1009B0000FB6F894A895809360000FBE2093600056
:1009C0008BE091E085D2CE0104967C018BE2C82EAB
:1009D00081E0D82E9BEAA92E91E0B92E28E1822E43
:1009E000912C3FE0632E80914F029091500284360B
:1009F000910528F01092500210924F02A89580E4C1
:100A00001ED2882391F0772081F080E291E0F7DE1A
:100A100080E09EEC3EDBB70180E0BCD083E291E059
:100A200057D284EF91E036D2712CF89480915A011C
:100A3000882339F010925A018EE092E004D180931D
:100A40005102789480915102882309F440C07720A4
:100A500009F43DC02EE032E03F932F93FF92EF92D6
:100A6000DF92CF92BF92AF920ED58BEA91E030D257
:100A70008DE191E02DD26BEA71E08FEF58D180913A
:100A800064008F6E8093640039DF809164008B7FF7
:100A900080936400809164008D7F809364008091D6
:100AA00064008F7D8093640080916400877F8093D1
:100AB00064000FB6F894A895809260000FBE609213
:100AC0006000A8950FB6F894DEBF0FBECDBF1092A0
:100AD000510210920E021092AB01711084CF60E3AC
:100AE00071E08BEA91E08ED46BEA71E08FEF1FD159
:100AF00004EF11E02EE4AE01495F5F4F6EEE71E04E
:100B000080E061D180935102882309F46CCF6FEEAD
:100B100071E0CE01019676D4CE01019670DE40E1FF
:100B200050E060E070E0CE0101960BD3762EB70165
:100B3000872D30D062E371E08BEA91E063D46BEAF9
:100B400071E08FEFF4D0872D90E09E6CA2DA1F82C7
:100B50001092510248CFCF93C82F8FEF90E0CAD1A7
:100B6000FC0120E030E04C2F50E061E0620F2417E0
:100B7000350724F461932F5F3F4FF7CFCF9108954E
:100B80008FE384B987B98FEF8AB915B880E488B943
:100B90001BB80895DF92EF92FF920F931F93CF93AC
:100BA000DF93CDB7DEB727970FB6F894DEBF0FBE41
:100BB000CDBFD82E8B01E82EF12C40E1BE016F5F36
:100BC0007F4FC70135D440E1B801C70131D48FE070
:100BD0008D1588F020E330E040E02D833E834F8385
:100BE000B801CE01059603D443E050E0BE016B5F2F
:100BF0007F4FC8010ED427960FB6F894DEBF0FBE04
:100C0000CDBFDF91CF911F910F91FF90EF90DF90BB
:100C10000895262F30E0611103C061E0FC0107C098
:100C2000FC01E20FF31FDF0111976C916F5F60838E
:100C3000FC01E20FF31FBA018081ACCFFCDB8CEC2E
:100C400012DC84E410CCFF920F931F93CF93DF93B9
:100C5000CDB7DEB729970FB6F894DEBF0FBECDBF74
:100C6000182F092FE8DB811103C064E371E013C082
:100C7000E2DB8CECF8DB8EEBF6DB69E0CE01019673
:100C8000F1DCF98468E070E0CE01019688DBF816AB
:100C900041F06EE371E0812F902FB4D3CFDF80E07D
:100CA0003AC02A8130E0322F22278981280F311D56
:100CB00037FF05C031952195310981E001C080E001
:100CC000F901EF70FF2761E772E0E69FA001E79F5F
:100CD000500DF69F500D112494E0369527959A9566
:100CE000E1F73327882311F08DE201C080E25F93A2
:100CF0004F933F932F931F928F9329E431E03F93BB
:100D00002F930F931F93BFD399DF0FB6F894DEBFD5
:100D10000FBECDBF81E029960FB6F894DEBF0FBE9F
:100D2000CDBFDF91CF911F910F91FF9008951F9339
:100D3000CF93DF93182FEB01FDD9FE010190002026
:100D4000E9F7BF01615071096C1B7D0B412FCE018A
:100D5000CBDAFE0101900020E9F7BF016150710973
:100D60006C1B7D0B412FCE0198DA04DA7DDA8430DA
:100D7000E9F3DF91CF911F910895FF920F931F9395
:100D8000CF93DF93F82EEB018A016EDA823019F0EF
:100D9000833069F012C0B801CE0169DA4F2DB80175
:100DA000CE01BEDA811103C01882F8011082DF91F2
:100DB000CF911F910F91FF90C4C9DF91CF911F91E7
:100DC0000F91FF900895CF92DF92EF92FF920F93D1
:100DD0001F93CF93DF93D82EEB017A01C22EB1D9A6
:100DE00002301105C0F040DA823079F4B701CE014B
:100DF0003EDA4D2DB701CE0193DA882331F0888198
:100E00008C1103C097D981E00BC00150110981E01A
:100E100090E040D0E5CF1882F70110828BD980E0B6
:100E2000DF91CF911F910F91FF90EF90DF90CF90C6
:100E3000089556985E9A089557985F9A0895CF93AB
:100E4000C82F99B1982339F480E590E023D099B167
:100E50009C2381E009F080E0CF91089594B59260E1
:100E600094BD95B5936095BD87BDEEE6F0E08081B9
:100E7000826080830895E1E8F0E020812360208390
:100E80009093890080938800EFE6F0E08081826093
:100E9000808308951092AA011092A9012091A901BE
:100EA0003091AA0128173907C8F308959093C50017
:100EB0008093C40088E98093C10086E08093C200DB
:100EC00008959091C00095FFFCCF8093C6000895CF
:100ED000CF93DF93EC018991882311F0F2DFFBCFF0
:100EE000DF91CF9108958091C00087FFFCCF809162
:100EF000C6000895CF93DF938230910510F482E00D
:100F000090E0E0915402F091550220E030E0A0E042
:100F1000B0E0309739F14081518148175907B8F056
:100F20004817590771F482819381109729F013961D
:100F30009C938E9312972CC09093550280935402E9
:100F400027C02115310531F04217530718F0A901C8
:100F5000DB0101C0EF019A01BD01DF010280F381D5
:100F6000E02DD7CF21153105F9F0281B390B24309E
:100F7000310580F48A819B816115710521F0FB01A7
:100F80009383828304C09093550280935402FE01A0
:100F9000329644C0FE01E20FF31F819391932250D9
:100FA0003109398328833AC020915202309153028B
:100FB000232B41F42091020130910301309353021D
:100FC0002093520220910001309101012115310539
:100FD00041F42DB73EB74091040150910501241B07
:100FE000350BE0915202F0915302E217F307A0F49F
:100FF0002E1B3F0B2817390778F0AC014E5F5F4F6F
:101000002417350748F04E0F5F1F5093530240934B
:1010100052028193919302C0E0E0F0E0CF01DF91B2
:10102000CF910895CF93DF93009709F487C0FC0117
:10103000329713821282C0915402D09155022097A8
:1010400081F420813181280F391F809152029091C3
:1010500053028217930779F5F0935302E0935202FB
:101060006DC0DE0120E030E0AE17BF0750F41296ED
:101070004D915C9113979D014115510509F1DA01DC
:10108000F3CFB383A28340815181840F951F8A17C8
:101090009B0771F48D919C911197840F951F029677
:1010A0009183808312968D919C9113979383828371
:1010B0002115310529F4F0935502E09354023EC006
:1010C000D9011396FC93EE9312974D915D91A40F65
:1010D000B51FEA17FB0779F480819181840F951F72
:1010E0000296D90111969C938E93828193811396D7
:1010F0009C938E931297E0E0F0E08A819B810097A9
:1011000019F0FE01EC01F9CFCE0102962881398158
:10111000820F931F209152023091530228173907F2
:1011200069F4309729F4109255021092540202C0CB
:1011300013821282D0935302C0935202DF91CF9157
:1011400008952F923F925F926F927F928F929F921B
:10115000AF92BF92CF92DF92EF92FF920F931F93C5
:10116000CF93DF938B01EA016115710521F0DB015B
:101170008C9311969C93209739F09E01225031094F
:101180002332310508F0F8C07C016701BFEFCB1AAC
:10119000DB0A5601F7016080862D90E020D1892B73
:1011A00011F07601F2CFFDE26F120AC0570182E022
:1011B000A80EB11CD70111966C90772473940BC0C4
:1011C000BBE26B1207C05701E2E0AE0EB11CD701C3
:1011D00011966C90712CCE018F7E892B89F4B0E32F
:1011E0006B1222C0F50180818F7D883541F56180C9
:1011F000F2E0AF0EB11C872D8260782EC0E1D0E006
:10120000C830D105F1F04CF4C230D10511F5C12C34
:10121000D12CE12CB0E4FB2E2EC0CA30D10531F028
:10122000C031D10519F115C0209751F7CAE0D0E0BF
:10123000ACECCA2EDC2CEC2CACE0FA2E1CC02097B7
:10124000F9F6C8E0D0E0C12CD12CE12CF0E1FF2E62
:1012500012C060E070E080E090E89E01442737FD16
:101260004095542FBAD369017A0105C0C12CD12C05
:10127000E12CE8E0FE2EF50160E020E030E0A9017D
:101280004E01AA2497FCA094BA2C1F0170ED572E92
:10129000560CA9E0A51570F48FEB860D8A3118F471
:1012A00099EC592E06C08FE9860D8A3128F589EA16
:1012B000582E560C852D90E08C179D07ECF467FD99
:1012C00017C0C216D306E406F50678F0C501B401CE
:1012D00075D39B01AC01250D311D411D511D2130E0
:1012E00031054105B0E85B0710F06FEF01C061E028
:1012F0003196D1016C90C9CF872D817001151105F0
:1013000071F0662329F03197D801ED93FC9307C063
:1013100071FE19C03297D801ED93FC9314C067FF9A
:1013200012C0882329F020E030E040E050E804C0FB
:101330002FEF3FEF4FEF5FE782E290E0909357028D
:101340008093560216C0882341F050954095309501
:1013500021953F4F4F4F5F4F0CC057FF0AC082E2AD
:1013600090E090935702809356022FEF3FEF4FEF9C
:101370005FE7B901CA0104C060E070E080E090E07E
:10138000DF91CF911F910F91FF90EF90DF90CF9061
:10139000BF90AF909F908F907F906F905F903F90A5
:1013A0002F900895FC0188279927E89421912032F5
:1013B000E9F3293010F02E30C8F32B3239F02D32FA
:1013C00031F4689403C03ED0820F911D21912053C7
:1013D0002A30C8F31EF4909581959F4F089591117E
:1013E00034C2803219F089508550D0F70895FB013E
:1013F000DC010D900020E9F7119701900D9200207B
:10140000E1F70895FB01DC0101900D920020E1F766
:101410000895FB01DC014150504048F001900D92CD
:101420000020C9F701C01D9241505040E0F70895D7
:10143000BB274A3031F4992322F4BDE2909581957F
:101440009F4F09C07AE0979F902D879F802D910D27
:1014500011240895BB27FB015527AA27880F991F40
:10146000AA1FA41710F0A41B83955051B9F7A05DD3
:10147000AA3308F0A95DA193009779F7B111B19350
:101480001192CB01FBC1AEE0B0E0E8E4FAE0DFC2CC
:101490000D891E8986E08C831A8309838FEF9FE76D
:1014A0009E838D83AE01475E5F4F6F89788DCE013D
:1014B000019608D0EF81F885E00FF11F10822E967B
:1014C000E4E0E1C2ACE0B0E0E7E6FAE0B2C27C0101
:1014D0006B018A01FC0117821682838181FFB0C1F2
:1014E000CE0101964C01F7019381F60193FD8591A0
:1014F00093FF81916F01882309F49EC1853239F4ED
:1015000093FD859193FF81916F01853221F4B7019D
:1015100090E0C4D1E8CF512C312C20E02032A0F44F
:101520008B3269F030F4803259F0833269F42061F3
:101530002CC08D3239F0803339F4216026C022600E
:10154000246023C0286021C027FD27C030ED380F5C
:101550003A3078F426FF06C0FAE05F9E300D112481
:10156000532E13C08AE0389E300D1124332E206292
:101570000CC08E3221F426FD5FC1206406C08C367B
:1015800011F4206802C0883641F4F60193FD85917C
:1015900093FF81916F018111C1CF982F9F7D955449
:1015A000933028F40C5F1F4FFFE3F9830DC083369F
:1015B00031F0833771F0833509F057C021C0F8014D
:1015C000808189830E5F1F4F44244394512C540122
:1015D00014C03801F2E06F0E711CF801A080B180D8
:1015E00026FF03C0652D70E002C06FEF7FEFC501DD
:1015F0002C8739D12C0183012C852F77222E16C000
:101600003801F2E06F0E711CF801A080B18026FF56
:1016100003C0652D70E002C06FEF7FEFC5012C871E
:1016200017D12C012C852068222E830123FC19C0A0
:10163000832D90E048165906A0F4B70180E290E0AF
:101640002DD13A94F5CFF50127FC859127FE8191A4
:101650005F01B70190E022D131103A94F1E04F1AC6
:1016600051084114510479F7DEC0843611F08936EF
:1016700031F5F80127FF07C0608171818281938174
:101680000C5F1F4F08C060817181882777FD8095AE
:10169000982F0E5F1F4F2F76B22E97FF09C090959F
:1016A0008095709561957F4F8F4F9F4F2068B22E28
:1016B0002AE030E0A40124D1A82EA81843C0853721
:1016C00029F42F7EB22E2AE030E025C0F22FF97FD8
:1016D000BF2E8F36C1F018F4883579F0ADC0803751
:1016E00019F0883721F0A8C02F2F2061B22EB4FE48
:1016F0000DC08B2D8460B82E09C024FF0AC09F2F17
:101700009660B92E06C028E030E005C020E130E048
:1017100002C020E132E0F801B7FE07C060817181AC
:10172000828193810C5F1F4F06C06081718180E0D0
:1017300090E00E5F1F4FA401E3D0A82EA818FB2D48
:10174000FF77BF2EB6FE0BC02B2D2E7FA51450F4B5
:10175000B4FE0AC0B2FC08C02B2D2E7E05C07A2C28
:101760002B2D03C07A2C01C0752C24FF0DC0FE0167
:10177000EA0DF11D8081803311F4297E09C022FF1A
:1017800006C07394739404C0822F867809F0739412
:1017900023FD12C020FF06C05A2C731418F4530CFA
:1017A0005718732C731460F4B70180E290E02C8713
:1017B00075D073942C85F6CF731410F4371801C0CC
:1017C000312C24FF11C0B70180E390E02C8766D054
:1017D0002C8522FF16C021FF03C088E590E002C0DF
:1017E00088E790E0B7010CC0822F867851F021FD88
:1017F00002C080E201C08BE227FD8DE2B70190E0DC
:101800004DD0A51430F4B70180E390E047D05A944E
:10181000F8CFAA94F401EA0DF11D8081B70190E0A0
:101820003DD0A110F6CF332009F45DCEB70180E2A0
:1018300090E034D03A94F7CFF7018681978102C0C7
:101840008FEF9FEF2C96E2E110C19927882708952A
:10185000FC010590615070400110D8F7809590957B
:101860008E0F9F1F0895FC01615070400190011080
:10187000D8F7809590958E0F9F1F0895DC01FC018D
:10188000672F71917723E1F7329704C07C916D93B4
:1018900070836291AE17BF07C8F308950F931F932B
:1018A000CF93DF93182F092FEB018B8181FD03C0AC
:1018B0008FEF9FEF20C082FF10C04E815F812C818F
:1018C0003D81421753077CF4E881F9819F012F5F26
:1018D0003F4F39832883108306C0E885F985812F1F
:1018E0000995892B29F72E813F812F5F3F4F3F8339
:1018F0002E83812F902FDF91CF911F910F9108950B
:10190000FA01AA27283051F1203181F1E8946F9330
:101910006E7F6E5F7F4F8F4F9F4FAF4FB1E03ED0D6
:10192000B4E03CD0670F781F891F9A1FA11D680F74
:10193000791F8A1F911DA11D6A0F711D811D911DA7
:10194000A11D20D009F468943F912AE0269F11241C
:101950003019305D3193DEF6CF010895462F477080
:10196000405D4193B3E00FD0C9F7F6CF462F4F70DB
:10197000405D4A3318F0495D31FD4052419302D039
:10198000A9F7EACFB4E0A6959795879577956795DF
:10199000BA95C9F700976105710508959B01AC01DF
:1019A0000A2E06945795479537952795BA95C9F706
:1019B000620F731F841F951FA01D0895DB018F9375
:1019C0009F932DD0BF91AF91A29F800D911DA39F9A
:1019D000900DB29F900D11240895A1E21A2EAA1B1A
:1019E000BB1BFD010DC0AA1FBB1FEE1FFF1FA217CF
:1019F000B307E407F50720F0A21BB30BE40BF50BCC
:101A0000661F771F881F991F1A9469F76095709554
:101A1000809590959B01AC01BD01CF01089540D008
:101A2000A59F900DB49F900DA49F800D911D112432
:101A300008952F923F924F925F926F927F928F9272
:101A40009F92AF92BF92CF92DF92EF92FF920F934D
:101A50001F93CF93DF93CDB7DEB7CA1BDB0B0FB657
:101A6000F894DEBF0FBECDBF09942A883988488814
:101A70005F846E847D848C849B84AA84B984C884AA
:101A8000DF80EE80FD800C811B81AA81B981CE0FA1
:101A9000D11D0FB6F894DEBF0FBECDBFED01089586
:101AA000A29FB001B39FC001A39F01D0B29F700D50
:0C1AB000811D1124911D0895F894FFCFB2
:101ABC0000005802200025303364000D0A0D0A5234
:101ACC00464D313242202D20534C4156450D0A00D3
:101ADC0030300072657365740D0A00257325730030
:101AEC003F004F00542E50524553454E5400542E37
:101AFC00435243382E455252002563253033642E11
:061B0C00253034640000E6
:00000001FF
